{
    "contractName": "basicMath",
    "abi": [
        {
            "inputs": [
                {
                    "internalType": "uint256",
                    "name": "_numberA",
                    "type": "uint256"
                },
                {
                    "internalType": "uint256",
                    "name": "_numberB",
                    "type": "uint256"
                }
            ],
            "name": "add",
            "outputs": [
                {
                    "internalType": "uint256",
                    "name": "",
                    "type": "uint256"
                }
            ],
            "stateMutability": "pure",
            "type": "function"
        }
    ],
    "bytecode": "608060405234801561001057600080fd5b5060db8061001f6000396000f3fe6080604052348015600f57600080fd5b506004361060285760003560e01c8063771602f714602d575b600080fd5b603c6038366004605f565b604e565b60405190815260200160405180910390f35b6000605882846080565b9392505050565b60008060408385031215607157600080fd5b50508035926020909101359150565b6000821982111560a057634e487b7160e01b600052601160045260246000fd5b50019056fea264697066735822122073120205809d98f7b357bfb93b897b578f5ea8e27b50c238842ca2f6d9d3bc8e64736f6c634300080c0033",
    "sourcePath": "c:/Prototipos/ethereum/linkedin/SupplyChainApp/contracts/basicMath.sol",
    "compiler": {
        "name": "solc",
        "version": "0.8.12+commit.f00d7308"
    },
    "functionHashes": {
        "add(uint256,uint256)": "771602f7"
    },
    "gasEstimates": {
        "creation": {
            "codeDepositCost": "43800",
            "executionCost": "93",
            "totalCost": "43893"
        },
        "external": {
            "add(uint256,uint256)": "352"
        }
    }
}