{
    "contractName": "ERC20Token",
    "abi": [
        {
            "anonymous": false,
            "inputs": [
                {
                    "indexed": true,
                    "internalType": "address",
                    "name": "owner",
                    "type": "address"
                },
                {
                    "indexed": true,
                    "internalType": "address",
                    "name": "spender",
                    "type": "address"
                },
                {
                    "indexed": false,
                    "internalType": "uint256",
                    "name": "value",
                    "type": "uint256"
                }
            ],
            "name": "Approval",
            "type": "event"
        },
        {
            "anonymous": false,
            "inputs": [
                {
                    "indexed": true,
                    "internalType": "address",
                    "name": "from",
                    "type": "address"
                },
                {
                    "indexed": true,
                    "internalType": "address",
                    "name": "to",
                    "type": "address"
                },
                {
                    "indexed": false,
                    "internalType": "uint256",
                    "name": "value",
                    "type": "uint256"
                }
            ],
            "name": "Transfer",
            "type": "event"
        },
        {
            "inputs": [
                {
                    "internalType": "address",
                    "name": "",
                    "type": "address"
                },
                {
                    "internalType": "address",
                    "name": "",
                    "type": "address"
                }
            ],
            "name": "allowance",
            "outputs": [
                {
                    "internalType": "uint256",
                    "name": "",
                    "type": "uint256"
                }
            ],
            "stateMutability": "view",
            "type": "function"
        },
        {
            "inputs": [
                {
                    "internalType": "address",
                    "name": "spender",
                    "type": "address"
                },
                {
                    "internalType": "uint256",
                    "name": "amount",
                    "type": "uint256"
                }
            ],
            "name": "approve",
            "outputs": [
                {
                    "internalType": "bool",
                    "name": "",
                    "type": "bool"
                }
            ],
            "stateMutability": "nonpayable",
            "type": "function"
        },
        {
            "inputs": [
                {
                    "internalType": "address",
                    "name": "",
                    "type": "address"
                }
            ],
            "name": "balanceOf",
            "outputs": [
                {
                    "internalType": "uint256",
                    "name": "",
                    "type": "uint256"
                }
            ],
            "stateMutability": "view",
            "type": "function"
        },
        {
            "inputs": [
                {
                    "internalType": "uint256",
                    "name": "amount",
                    "type": "uint256"
                }
            ],
            "name": "burn",
            "outputs": [],
            "stateMutability": "nonpayable",
            "type": "function"
        },
        {
            "inputs": [],
            "name": "decimals",
            "outputs": [
                {
                    "internalType": "uint8",
                    "name": "",
                    "type": "uint8"
                }
            ],
            "stateMutability": "view",
            "type": "function"
        },
        {
            "inputs": [
                {
                    "internalType": "uint256",
                    "name": "amount",
                    "type": "uint256"
                }
            ],
            "name": "mint",
            "outputs": [],
            "stateMutability": "nonpayable",
            "type": "function"
        },
        {
            "inputs": [],
            "name": "name",
            "outputs": [
                {
                    "internalType": "string",
                    "name": "",
                    "type": "string"
                }
            ],
            "stateMutability": "view",
            "type": "function"
        },
        {
            "inputs": [],
            "name": "symbol",
            "outputs": [
                {
                    "internalType": "string",
                    "name": "",
                    "type": "string"
                }
            ],
            "stateMutability": "view",
            "type": "function"
        },
        {
            "inputs": [],
            "name": "totalSupply",
            "outputs": [
                {
                    "internalType": "uint256",
                    "name": "",
                    "type": "uint256"
                }
            ],
            "stateMutability": "view",
            "type": "function"
        },
        {
            "inputs": [
                {
                    "internalType": "address",
                    "name": "recipient",
                    "type": "address"
                },
                {
                    "internalType": "uint256",
                    "name": "amount",
                    "type": "uint256"
                }
            ],
            "name": "transfer",
            "outputs": [
                {
                    "internalType": "bool",
                    "name": "",
                    "type": "bool"
                }
            ],
            "stateMutability": "nonpayable",
            "type": "function"
        },
        {
            "inputs": [
                {
                    "internalType": "address",
                    "name": "sender",
                    "type": "address"
                },
                {
                    "internalType": "address",
                    "name": "recipient",
                    "type": "address"
                },
                {
                    "internalType": "uint256",
                    "name": "amount",
                    "type": "uint256"
                }
            ],
            "name": "transferFrom",
            "outputs": [
                {
                    "internalType": "bool",
                    "name": "",
                    "type": "bool"
                }
            ],
            "stateMutability": "nonpayable",
            "type": "function"
        }
    ],
    "bytecode": "60c0604052601360808190527f536f6c6964697479206279204578616d706c650000000000000000000000000060a090815261003e916003919061008d565b50604080518082019091526007808252660a69e9884b28ab60cb1b602090920191825261006d9160049161008d565b506005805460ff1916601217905534801561008757600080fd5b50610161565b82805461009990610126565b90600052602060002090601f0160209004810192826100bb5760008555610101565b82601f106100d457805160ff1916838001178555610101565b82800160010185558215610101579182015b828111156101015782518255916020019190600101906100e6565b5061010d929150610111565b5090565b5b8082111561010d5760008155600101610112565b600181811c9082168061013a57607f821691505b6020821081141561015b57634e487b7160e01b600052602260045260246000fd5b50919050565b610706806101706000396000f3fe608060405234801561001057600080fd5b50600436106100a95760003560e01c806342966c681161007157806342966c681461013857806370a082311461014d57806395d89b411461016d578063a0712d6814610175578063a9059cbb14610188578063dd62ed3e1461019b57600080fd5b806306fdde03146100ae578063095ea7b3146100cc57806318160ddd146100ef57806323b872dd14610106578063313ce56714610119575b600080fd5b6100b66101c6565b6040516100c391906104eb565b60405180910390f35b6100df6100da36600461055c565b610254565b60405190151581526020016100c3565b6100f860005481565b6040519081526020016100c3565b6100df610114366004610586565b6102c0565b6005546101269060ff1681565b60405160ff90911681526020016100c3565b61014b6101463660046105c2565b61039b565b005b6100f861015b3660046105db565b60016020526000908152604090205481565b6100b6610401565b61014b6101833660046105c2565b61040e565b6100df61019636600461055c565b61046d565b6100f86101a93660046105fd565b600260209081526000928352604080842090915290825290205481565b600380546101d390610630565b80601f01602080910402602001604051908101604052809291908181526020018280546101ff90610630565b801561024c5780601f106102215761010080835404028352916020019161024c565b820191906000526020600020905b81548152906001019060200180831161022f57829003601f168201915b505050505081565b3360008181526002602090815260408083206001600160a01b038716808552925280832085905551919290917f8c5be1e5ebec7d5bd14f71427d1e84f3dd0314c0f7b2291e5b200ac8c7c3b925906102af9086815260200190565b60405180910390a350600192915050565b6001600160a01b03831660009081526002602090815260408083203384529091528120805483919083906102f5908490610681565b90915550506001600160a01b03841660009081526001602052604081208054849290610322908490610681565b90915550506001600160a01b0383166000908152600160205260408120805484929061034f908490610698565b92505081905550826001600160a01b0316846001600160a01b03166000805160206106b18339815191528460405161038991815260200190565b60405180910390a35060019392505050565b33600090815260016020526040812080548392906103ba908490610681565b92505081905550806000808282546103d29190610681565b909155505060405181815260009033906000805160206106b1833981519152906020015b60405180910390a350565b600480546101d390610630565b336000908152600160205260408120805483929061042d908490610698565b92505081905550806000808282546104459190610698565b909155505060405181815233906000906000805160206106b1833981519152906020016103f6565b3360009081526001602052604081208054839190839061048e908490610681565b90915550506001600160a01b038316600090815260016020526040812080548492906104bb908490610698565b90915550506040518281526001600160a01b0384169033906000805160206106b1833981519152906020016102af565b600060208083528351808285015260005b81811015610518578581018301518582016040015282016104fc565b8181111561052a576000604083870101525b50601f01601f1916929092016040019392505050565b80356001600160a01b038116811461055757600080fd5b919050565b6000806040838503121561056f57600080fd5b61057883610540565b946020939093013593505050565b60008060006060848603121561059b57600080fd5b6105a484610540565b92506105b260208501610540565b9150604084013590509250925092565b6000602082840312156105d457600080fd5b5035919050565b6000602082840312156105ed57600080fd5b6105f682610540565b9392505050565b6000806040838503121561061057600080fd5b61061983610540565b915061062760208401610540565b90509250929050565b600181811c9082168061064457607f821691505b6020821081141561066557634e487b7160e01b600052602260045260246000fd5b50919050565b634e487b7160e01b600052601160045260246000fd5b6000828210156106935761069361066b565b500390565b600082198211156106ab576106ab61066b565b50019056feddf252ad1be2c89b69c2b068fc378daa952ba7f163c4a11628f55a4df523b3efa2646970667358221220c9fb50bbafdb50204968070effcecde095c4e61a7984d9f0acaec8c66d7c611164736f6c634300080c0033",
    "sourcePath": "c:/Prototipos/ethereum/linkedin/SupplyChainApp/contracts/erc20Token.sol",
    "compiler": {
        "name": "solc",
        "version": "0.8.12+commit.f00d7308"
    },
    "functionHashes": {
        "allowance(address,address)": "dd62ed3e",
        "approve(address,uint256)": "095ea7b3",
        "balanceOf(address)": "70a08231",
        "burn(uint256)": "42966c68",
        "decimals()": "313ce567",
        "mint(uint256)": "a0712d68",
        "name()": "06fdde03",
        "symbol()": "95d89b41",
        "totalSupply()": "18160ddd",
        "transfer(address,uint256)": "a9059cbb",
        "transferFrom(address,address,uint256)": "23b872dd"
    },
    "gasEstimates": {
        "creation": {
            "codeDepositCost": "359600",
            "executionCost": "infinite",
            "totalCost": "infinite"
        },
        "external": {
            "allowance(address,address)": "infinite",
            "approve(address,uint256)": "24522",
            "balanceOf(address)": "2541",
            "burn(uint256)": "infinite",
            "decimals()": "2402",
            "mint(uint256)": "infinite",
            "name()": "infinite",
            "symbol()": "infinite",
            "totalSupply()": "2340",
            "transfer(address,uint256)": "infinite",
            "transferFrom(address,address,uint256)": "infinite"
        }
    }
}